{
  "contractName": "BatchingTransaction",
  "abi": [
    {
      "inputs": [
        {
          "internalType": "address payable",
          "name": "_seller",
          "type": "address"
        },
        {
          "internalType": "uint256",
          "name": "_durationInSeconds",
          "type": "uint256"
        },
        {
          "internalType": "string[]",
          "name": "_descriptions",
          "type": "string[]"
        },
        {
          "internalType": "uint256[]",
          "name": "_prices",
          "type": "uint256[]"
        }
      ],
      "stateMutability": "nonpayable",
      "type": "constructor"
    },
    {
      "anonymous": false,
      "inputs": [
        {
          "indexed": false,
          "internalType": "uint256",
          "name": "milestoneIndex",
          "type": "uint256"
        },
        {
          "indexed": true,
          "internalType": "address",
          "name": "approver",
          "type": "address"
        }
      ],
      "name": "ApprovalReceived",
      "type": "event"
    },
    {
      "anonymous": false,
      "inputs": [
        {
          "indexed": false,
          "internalType": "uint256",
          "name": "milestoneIndex",
          "type": "uint256"
        },
        {
          "indexed": true,
          "internalType": "address",
          "name": "seller",
          "type": "address"
        }
      ],
      "name": "MilestoneCompleted",
      "type": "event"
    },
    {
      "anonymous": false,
      "inputs": [
        {
          "indexed": true,
          "internalType": "address",
          "name": "buyer",
          "type": "address"
        },
        {
          "indexed": false,
          "internalType": "uint256",
          "name": "amount",
          "type": "uint256"
        }
      ],
      "name": "PaymentMade",
      "type": "event"
    },
    {
      "anonymous": false,
      "inputs": [
        {
          "indexed": true,
          "internalType": "address",
          "name": "buyer",
          "type": "address"
        },
        {
          "indexed": false,
          "internalType": "uint256",
          "name": "amount",
          "type": "uint256"
        }
      ],
      "name": "RefundIssued",
      "type": "event"
    },
    {
      "inputs": [],
      "name": "buyer",
      "outputs": [
        {
          "internalType": "address payable",
          "name": "",
          "type": "address"
        }
      ],
      "stateMutability": "view",
      "type": "function",
      "constant": true
    },
    {
      "inputs": [],
      "name": "deadline",
      "outputs": [
        {
          "internalType": "uint256",
          "name": "",
          "type": "uint256"
        }
      ],
      "stateMutability": "view",
      "type": "function",
      "constant": true
    },
    {
      "inputs": [],
      "name": "durationInSeconds",
      "outputs": [
        {
          "internalType": "uint256",
          "name": "",
          "type": "uint256"
        }
      ],
      "stateMutability": "view",
      "type": "function",
      "constant": true
    },
    {
      "inputs": [
        {
          "internalType": "uint256",
          "name": "",
          "type": "uint256"
        }
      ],
      "name": "milestones",
      "outputs": [
        {
          "internalType": "string",
          "name": "description",
          "type": "string"
        },
        {
          "internalType": "uint256",
          "name": "paymentAmount",
          "type": "uint256"
        },
        {
          "internalType": "bool",
          "name": "completed",
          "type": "bool"
        },
        {
          "internalType": "bool",
          "name": "buyerApproved",
          "type": "bool"
        },
        {
          "internalType": "bool",
          "name": "sellerApproved",
          "type": "bool"
        }
      ],
      "stateMutability": "view",
      "type": "function",
      "constant": true
    },
    {
      "inputs": [],
      "name": "seller",
      "outputs": [
        {
          "internalType": "address payable",
          "name": "",
          "type": "address"
        }
      ],
      "stateMutability": "view",
      "type": "function",
      "constant": true
    },
    {
      "inputs": [],
      "name": "totalJobAmount",
      "outputs": [
        {
          "internalType": "uint256",
          "name": "",
          "type": "uint256"
        }
      ],
      "stateMutability": "view",
      "type": "function",
      "constant": true
    },
    {
      "inputs": [],
      "name": "deposit",
      "outputs": [],
      "stateMutability": "payable",
      "type": "function",
      "payable": true
    },
    {
      "inputs": [
        {
          "internalType": "uint256",
          "name": "milestoneIndex",
          "type": "uint256"
        }
      ],
      "name": "approveMilestoneByBuyer",
      "outputs": [],
      "stateMutability": "nonpayable",
      "type": "function"
    },
    {
      "inputs": [
        {
          "internalType": "uint256",
          "name": "milestoneIndex",
          "type": "uint256"
        }
      ],
      "name": "approveMilestoneBySeller",
      "outputs": [],
      "stateMutability": "nonpayable",
      "type": "function"
    },
    {
      "inputs": [
        {
          "internalType": "uint256",
          "name": "milestoneIndex",
          "type": "uint256"
        }
      ],
      "name": "completeMilestoneWrapper",
      "outputs": [],
      "stateMutability": "nonpayable",
      "type": "function"
    },
    {
      "inputs": [],
      "name": "refund",
      "outputs": [],
      "stateMutability": "nonpayable",
      "type": "function"
    },
    {
      "inputs": [],
      "name": "getMilestoneCount",
      "outputs": [
        {
          "internalType": "uint256",
          "name": "",
          "type": "uint256"
        }
      ],
      "stateMutability": "view",
      "type": "function",
      "constant": true
    },
    {
      "inputs": [
        {
          "internalType": "uint256",
          "name": "index",
          "type": "uint256"
        }
      ],
      "name": "getMilestone",
      "outputs": [
        {
          "internalType": "string",
          "name": "",
          "type": "string"
        },
        {
          "internalType": "uint256",
          "name": "",
          "type": "uint256"
        },
        {
          "internalType": "bool",
          "name": "",
          "type": "bool"
        }
      ],
      "stateMutability": "view",
      "type": "function",
      "constant": true
    },
    {
      "inputs": [
        {
          "internalType": "uint256",
          "name": "milestoneIndex",
          "type": "uint256"
        }
      ],
      "name": "getMilestoneApprovals",
      "outputs": [
        {
          "internalType": "bool",
          "name": "buyerApproved",
          "type": "bool"
        },
        {
          "internalType": "bool",
          "name": "sellerApproved",
          "type": "bool"
        }
      ],
      "stateMutability": "view",
      "type": "function",
      "constant": true
    }
  ],
  "bytecode": "0x60a06040523480156200001157600080fd5b50604051620027e6380380620027e6833981810160405281019062000037919062000536565b336000806101000a81548173ffffffffffffffffffffffffffffffffffffffff021916908373ffffffffffffffffffffffffffffffffffffffff16021790555083600160006101000a81548173ffffffffffffffffffffffffffffffffffffffff021916908373ffffffffffffffffffffffffffffffffffffffff160217905550826080818152505060005b8251811015620002a75760046040518060a0016040528085848151811062000114577f4e487b7100000000000000000000000000000000000000000000000000000000600052603260045260246000fd5b602002602001015181526020018484815181106200015b577f4e487b7100000000000000000000000000000000000000000000000000000000600052603260045260246000fd5b602002602001015181526020016000151581526020016000151581526020016000151581525090806001815401808255809150506001900390600052602060002090600302016000909190919091506000820151816000019080519060200190620001c8929190620002b2565b506020820151816001015560408201518160020160006101000a81548160ff02191690831515021790555060608201518160020160016101000a81548160ff02191690831515021790555060808201518160020160026101000a81548160ff02191690831515021790555050508181815181106200026f577f4e487b7100000000000000000000000000000000000000000000000000000000600052603260045260246000fd5b6020026020010151600360008282546200028a919062000699565b9250508190555080806200029e90620007a0565b915050620000c3565b5050505050620008af565b828054620002c0906200076a565b90600052602060002090601f016020900481019282620002e4576000855562000330565b82601f10620002ff57805160ff191683800117855562000330565b8280016001018555821562000330579182015b828111156200032f57825182559160200191906001019062000312565b5b5090506200033f919062000343565b5090565b5b808211156200035e57600081600090555060010162000344565b5090565b600062000379620003738462000608565b620005d4565b9050808382526020820190508260005b85811015620003bd5781518501620003a28882620004f2565b84526020840193506020830192505060018101905062000389565b5050509392505050565b6000620003de620003d88462000637565b620005d4565b90508083825260208201905082856020860282011115620003fe57600080fd5b60005b858110156200043257816200041788826200051f565b84526020840193506020830192505060018101905062000401565b5050509392505050565b6000620004536200044d8462000666565b620005d4565b9050828152602081018484840111156200046c57600080fd5b6200047984828562000734565b509392505050565b60008151905062000492816200087b565b92915050565b600082601f830112620004aa57600080fd5b8151620004bc84826020860162000362565b91505092915050565b600082601f830112620004d757600080fd5b8151620004e9848260208601620003c7565b91505092915050565b600082601f8301126200050457600080fd5b8151620005168482602086016200043c565b91505092915050565b600081519050620005308162000895565b92915050565b600080600080608085870312156200054d57600080fd5b60006200055d8782880162000481565b945050602062000570878288016200051f565b935050604085015167ffffffffffffffff8111156200058e57600080fd5b6200059c8782880162000498565b925050606085015167ffffffffffffffff811115620005ba57600080fd5b620005c887828801620004c5565b91505092959194509250565b6000604051905081810181811067ffffffffffffffff82111715620005fe57620005fd6200084c565b5b8060405250919050565b600067ffffffffffffffff8211156200062657620006256200084c565b5b602082029050602081019050919050565b600067ffffffffffffffff8211156200065557620006546200084c565b5b602082029050602081019050919050565b600067ffffffffffffffff8211156200068457620006836200084c565b5b601f19601f8301169050602081019050919050565b6000620006a6826200072a565b9150620006b3836200072a565b9250827fffffffffffffffffffffffffffffffffffffffffffffffffffffffffffffffff03821115620006eb57620006ea620007ee565b5b828201905092915050565b600062000703826200070a565b9050919050565b600073ffffffffffffffffffffffffffffffffffffffff82169050919050565b6000819050919050565b60005b838110156200075457808201518184015260208101905062000737565b8381111562000764576000848401525b50505050565b600060028204905060018216806200078357607f821691505b602082108114156200079a57620007996200081d565b5b50919050565b6000620007ad826200072a565b91507fffffffffffffffffffffffffffffffffffffffffffffffffffffffffffffffff821415620007e357620007e2620007ee565b5b600182019050919050565b7f4e487b7100000000000000000000000000000000000000000000000000000000600052601160045260246000fd5b7f4e487b7100000000000000000000000000000000000000000000000000000000600052602260045260246000fd5b7f4e487b7100000000000000000000000000000000000000000000000000000000600052604160045260246000fd5b6200088681620006f6565b81146200089257600080fd5b50565b620008a0816200072a565b8114620008ac57600080fd5b50565b608051611f14620008d2600039600081816109700152610f6a0152611f146000f3fe6080604052600436106100dd5760003560e01c8063590e1ae31161007f5780638f4cf247116100595780638f4cf2471461029f578063d0e30db0146102ca578063d8e06086146102d4578063e89e4ed6146102fd576100dd565b8063590e1ae31461021f5780637150d8ae146102365780638885bffe14610261576100dd565b806329dcb0cf116100bb57806329dcb0cf146101755780632f2591d1146101a05780633ee9c157146101c95780634e8602bd146101f4576100dd565b806308551a53146100e257806308f1515e1461010d5780632442e1cb14610136575b600080fd5b3480156100ee57600080fd5b506100f761033e565b6040516101049190611a2e565b60405180910390f35b34801561011957600080fd5b50610134600480360381019061012f9190611532565b610364565b005b34801561014257600080fd5b5061015d60048036038101906101589190611532565b6105d7565b60405161016c93929190611a72565b60405180910390f35b34801561018157600080fd5b5061018a610784565b6040516101979190611cca565b60405180910390f35b3480156101ac57600080fd5b506101c760048036038101906101c29190611532565b61078a565b005b3480156101d557600080fd5b506101de610968565b6040516101eb9190611cca565b60405180910390f35b34801561020057600080fd5b5061020961096e565b6040516102169190611cca565b60405180910390f35b34801561022b57600080fd5b50610234610992565b005b34801561024257600080fd5b5061024b610cc1565b6040516102589190611a2e565b60405180910390f35b34801561026d57600080fd5b5061028860048036038101906102839190611532565b610ce5565b604051610296929190611a49565b60405180910390f35b3480156102ab57600080fd5b506102b4610e89565b6040516102c19190611cca565b60405180910390f35b6102d2610e96565b005b3480156102e057600080fd5b506102fb60048036038101906102f69190611532565b610f9c565b005b34801561030957600080fd5b50610324600480360381019061031f9190611532565b61120d565b604051610335959493929190611ab0565b60405180910390f35b600160009054906101000a900473ffffffffffffffffffffffffffffffffffffffff1681565b600160009054906101000a900473ffffffffffffffffffffffffffffffffffffffff1673ffffffffffffffffffffffffffffffffffffffff163373ffffffffffffffffffffffffffffffffffffffff16146103f4576040517f08c379a00000000000000000000000000000000000000000000000000000000081526004016103eb90611b4a565b60405180910390fd5b80600480549050811061043c576040517f08c379a000000000000000000000000000000000000000000000000000000000815260040161043390611b0a565b60405180910390fd5b600060048381548110610478577f4e487b7100000000000000000000000000000000000000000000000000000000600052603260045260246000fd5b906000526020600020906003020190508060020160009054906101000a900460ff16156104da576040517f08c379a00000000000000000000000000000000000000000000000000000000081526004016104d190611c0a565b60405180910390fd5b8060020160029054906101000a900460ff161561052c576040517f08c379a000000000000000000000000000000000000000000000000000000000815260040161052390611baa565b60405180910390fd5b60018160020160026101000a81548160ff0219169083151502179055503373ffffffffffffffffffffffffffffffffffffffff167fbe556a88b31b59bf2916d67a1114497febeef512cc2e5fa4ad132f7865c56ac28460405161058f9190611cca565b60405180910390a28060020160019054906101000a900460ff1680156105c357508060020160029054906101000a900460ff165b156105d2576105d183611302565b5b505050565b60606000806004805490508410610623576040517f08c379a000000000000000000000000000000000000000000000000000000000815260040161061a90611c4a565b60405180910390fd5b60006004858154811061065f577f4e487b7100000000000000000000000000000000000000000000000000000000600052603260045260246000fd5b90600052602060002090600302016040518060a001604052908160008201805461068890611ddd565b80601f01602080910402602001604051908101604052809291908181526020018280546106b490611ddd565b80156107015780601f106106d657610100808354040283529160200191610701565b820191906000526020600020905b8154815290600101906020018083116106e457829003601f168201915b50505050508152602001600182015481526020016002820160009054906101000a900460ff161515151581526020016002820160019054906101000a900460ff161515151581526020016002820160029054906101000a900460ff1615151515815250509050806000015181602001518260400151935093509350509193909250565b60025481565b600160009054906101000a900473ffffffffffffffffffffffffffffffffffffffff1673ffffffffffffffffffffffffffffffffffffffff163373ffffffffffffffffffffffffffffffffffffffff161461081a576040517f08c379a000000000000000000000000000000000000000000000000000000000815260040161081190611b4a565b60405180910390fd5b806004805490508110610862576040517f08c379a000000000000000000000000000000000000000000000000000000000815260040161085990611b0a565b60405180910390fd5b6004828154811061089c577f4e487b7100000000000000000000000000000000000000000000000000000000600052603260045260246000fd5b906000526020600020906003020160020160019054906101000a900460ff16801561091c5750600482815481106108fc577f4e487b7100000000000000000000000000000000000000000000000000000000600052603260045260246000fd5b906000526020600020906003020160020160029054906101000a900460ff165b61095b576040517f08c379a000000000000000000000000000000000000000000000000000000000815260040161095290611b6a565b60405180910390fd5b61096482611302565b5050565b60035481565b7f000000000000000000000000000000000000000000000000000000000000000081565b60008054906101000a900473ffffffffffffffffffffffffffffffffffffffff1673ffffffffffffffffffffffffffffffffffffffff163373ffffffffffffffffffffffffffffffffffffffff1614610a20576040517f08c379a0000000000000000000000000000000000000000000000000000000008152600401610a1790611b8a565b60405180910390fd5b6000805b600480549050811015610afb5760048181548110610a6b577f4e487b7100000000000000000000000000000000000000000000000000000000600052603260045260246000fd5b906000526020600020906003020160020160009054906101000a900460ff16610ae85760048181548110610ac8577f4e487b7100000000000000000000000000000000000000000000000000000000600052603260045260246000fd5b90600052602060002090600302016001015482610ae59190611d0c565b91505b8080610af390611e0f565b915050610a24565b5060008111610b3f576040517f08c379a0000000000000000000000000000000000000000000000000000000008152600401610b3690611c2a565b60405180910390fd5b80471015610b82576040517f08c379a0000000000000000000000000000000000000000000000000000000008152600401610b7990611caa565b60405180910390fd5b60008060009054906101000a900473ffffffffffffffffffffffffffffffffffffffff1673ffffffffffffffffffffffffffffffffffffffff1682604051610bc990611a19565b60006040518083038185875af1925050503d8060008114610c06576040519150601f19603f3d011682016040523d82523d6000602084013e610c0b565b606091505b5050905080610c4f576040517f08c379a0000000000000000000000000000000000000000000000000000000008152600401610c4690611c6a565b60405180910390fd5b60008054906101000a900473ffffffffffffffffffffffffffffffffffffffff1673ffffffffffffffffffffffffffffffffffffffff167fa171b6942063c6f2800ce40a780edce37baa2b618571b11eedd1e69e626e7d7683604051610cb59190611cca565b60405180910390a25050565b60008054906101000a900473ffffffffffffffffffffffffffffffffffffffff1681565b600080826004805490508110610d30576040517f08c379a0000000000000000000000000000000000000000000000000000000008152600401610d2790611b0a565b60405180910390fd5b600060048581548110610d6c577f4e487b7100000000000000000000000000000000000000000000000000000000600052603260045260246000fd5b90600052602060002090600302016040518060a0016040529081600082018054610d9590611ddd565b80601f0160208091040260200160405190810160405280929190818152602001828054610dc190611ddd565b8015610e0e5780601f10610de357610100808354040283529160200191610e0e565b820191906000526020600020905b815481529060010190602001808311610df157829003601f168201915b50505050508152602001600182015481526020016002820160009054906101000a900460ff161515151581526020016002820160019054906101000a900460ff161515151581526020016002820160029054906101000a900460ff161515151581525050905080606001518160800151935093505050915091565b6000600480549050905090565b60008054906101000a900473ffffffffffffffffffffffffffffffffffffffff1673ffffffffffffffffffffffffffffffffffffffff163373ffffffffffffffffffffffffffffffffffffffff1614610f24576040517f08c379a0000000000000000000000000000000000000000000000000000000008152600401610f1b90611b8a565b60405180910390fd5b6003543414610f68576040517f08c379a0000000000000000000000000000000000000000000000000000000008152600401610f5f90611bca565b60405180910390fd5b7f000000000000000000000000000000000000000000000000000000000000000042610f949190611d0c565b600281905550565b60008054906101000a900473ffffffffffffffffffffffffffffffffffffffff1673ffffffffffffffffffffffffffffffffffffffff163373ffffffffffffffffffffffffffffffffffffffff161461102a576040517f08c379a000000000000000000000000000000000000000000000000000000000815260040161102190611b8a565b60405180910390fd5b806004805490508110611072576040517f08c379a000000000000000000000000000000000000000000000000000000000815260040161106990611b0a565b60405180910390fd5b6000600483815481106110ae577f4e487b7100000000000000000000000000000000000000000000000000000000600052603260045260246000fd5b906000526020600020906003020190508060020160009054906101000a900460ff1615611110576040517f08c379a000000000000000000000000000000000000000000000000000000000815260040161110790611c0a565b60405180910390fd5b8060020160019054906101000a900460ff1615611162576040517f08c379a000000000000000000000000000000000000000000000000000000000815260040161115990611b2a565b60405180910390fd5b60018160020160016101000a81548160ff0219169083151502179055503373ffffffffffffffffffffffffffffffffffffffff167fbe556a88b31b59bf2916d67a1114497febeef512cc2e5fa4ad132f7865c56ac2846040516111c59190611cca565b60405180910390a28060020160019054906101000a900460ff1680156111f957508060020160029054906101000a900460ff165b156112085761120783611302565b5b505050565b6004818154811061121d57600080fd5b906000526020600020906003020160009150905080600001805461124090611ddd565b80601f016020809104026020016040519081016040528092919081815260200182805461126c90611ddd565b80156112b95780601f1061128e576101008083540402835291602001916112b9565b820191906000526020600020905b81548152906001019060200180831161129c57829003601f168201915b5050505050908060010154908060020160009054906101000a900460ff16908060020160019054906101000a900460ff16908060020160029054906101000a900460ff16905085565b60006004828154811061133e577f4e487b7100000000000000000000000000000000000000000000000000000000600052603260045260246000fd5b906000526020600020906003020190508060020160019054906101000a900460ff16801561137a57508060020160029054906101000a900460ff165b6113b9576040517f08c379a00000000000000000000000000000000000000000000000000000000081526004016113b090611c8a565b60405180910390fd5b60018160020160006101000a81548160ff0219169083151502179055506000600160009054906101000a900473ffffffffffffffffffffffffffffffffffffffff1673ffffffffffffffffffffffffffffffffffffffff16826001015460405161142290611a19565b60006040518083038185875af1925050503d806000811461145f576040519150601f19603f3d011682016040523d82523d6000602084013e611464565b606091505b50509050806114a8576040517f08c379a000000000000000000000000000000000000000000000000000000000815260040161149f90611bea565b60405180910390fd5b600160009054906101000a900473ffffffffffffffffffffffffffffffffffffffff1673ffffffffffffffffffffffffffffffffffffffff167f032f77b843a5cc848407ffb1e918c51fd6982fbfd1adf0b60f45c6d7bb54068a846040516115109190611cca565b60405180910390a2505050565b60008135905061152c81611ec7565b92915050565b60006020828403121561154457600080fd5b60006115528482850161151d565b91505092915050565b61156481611d62565b82525050565b61157381611d74565b82525050565b600061158482611ce5565b61158e8185611cfb565b935061159e818560208601611daa565b6115a781611eb6565b840191505092915050565b60006115bf601783611cfb565b91507f496e76616c6964206d696c6573746f6e6520696e6465780000000000000000006000830152602082019050919050565b60006115ff602583611cfb565b91507f427579657220616c726561647920617070726f7665642074686973206d696c6560008301527f73746f6e650000000000000000000000000000000000000000000000000000006020830152604082019050919050565b6000611665602783611cfb565b91507f4f6e6c79207468652073656c6c65722063616e20706572666f726d207468697360008301527f20616374696f6e000000000000000000000000000000000000000000000000006020830152604082019050919050565b60006116cb602583611cfb565b91507f426f74682070617274696573206d75737420617070726f766520746f20636f6d60008301527f706c6574650000000000000000000000000000000000000000000000000000006020830152604082019050919050565b6000611731602683611cfb565b91507f4f6e6c79207468652062757965722063616e20706572666f726d20746869732060008301527f616374696f6e00000000000000000000000000000000000000000000000000006020830152604082019050919050565b6000611797602683611cfb565b91507f53656c6c657220616c726561647920617070726f7665642074686973206d696c60008301527f6573746f6e6500000000000000000000000000000000000000000000000000006020830152604082019050919050565b60006117fd601f83611cfb565b91507f496e636f727265637420746f74616c206a6f6220616d6f756e742073656e74006000830152602082019050919050565b600061183d601783611cfb565b91507f5061796d656e74207472616e73666572206661696c65640000000000000000006000830152602082019050919050565b600061187d601b83611cfb565b91507f4d696c6573746f6e6520616c726561647920636f6d706c6574656400000000006000830152602082019050919050565b60006118bd601283611cfb565b91507f4e6f2066756e647320746f20726566756e6400000000000000000000000000006000830152602082019050919050565b60006118fd600083611cf0565b9150600082019050919050565b6000611917601383611cfb565b91507f496e646578206f7574206f6620626f756e6473000000000000000000000000006000830152602082019050919050565b6000611957601683611cfb565b91507f526566756e64207472616e73666572206661696c6564000000000000000000006000830152602082019050919050565b6000611997601983611cfb565b91507f426f74682070617274696573206d75737420617070726f7665000000000000006000830152602082019050919050565b60006119d7601d83611cfb565b91507f496e73756666696369656e7420636f6e74726163742062616c616e63650000006000830152602082019050919050565b611a1381611da0565b82525050565b6000611a24826118f0565b9150819050919050565b6000602082019050611a43600083018461155b565b92915050565b6000604082019050611a5e600083018561156a565b611a6b602083018461156a565b9392505050565b60006060820190508181036000830152611a8c8186611579565b9050611a9b6020830185611a0a565b611aa8604083018461156a565b949350505050565b600060a0820190508181036000830152611aca8188611579565b9050611ad96020830187611a0a565b611ae6604083018661156a565b611af3606083018561156a565b611b00608083018461156a565b9695505050505050565b60006020820190508181036000830152611b23816115b2565b9050919050565b60006020820190508181036000830152611b43816115f2565b9050919050565b60006020820190508181036000830152611b6381611658565b9050919050565b60006020820190508181036000830152611b83816116be565b9050919050565b60006020820190508181036000830152611ba381611724565b9050919050565b60006020820190508181036000830152611bc38161178a565b9050919050565b60006020820190508181036000830152611be3816117f0565b9050919050565b60006020820190508181036000830152611c0381611830565b9050919050565b60006020820190508181036000830152611c2381611870565b9050919050565b60006020820190508181036000830152611c43816118b0565b9050919050565b60006020820190508181036000830152611c638161190a565b9050919050565b60006020820190508181036000830152611c838161194a565b9050919050565b60006020820190508181036000830152611ca38161198a565b9050919050565b60006020820190508181036000830152611cc3816119ca565b9050919050565b6000602082019050611cdf6000830184611a0a565b92915050565b600081519050919050565b600081905092915050565b600082825260208201905092915050565b6000611d1782611da0565b9150611d2283611da0565b9250827fffffffffffffffffffffffffffffffffffffffffffffffffffffffffffffffff03821115611d5757611d56611e58565b5b828201905092915050565b6000611d6d82611d80565b9050919050565b60008115159050919050565b600073ffffffffffffffffffffffffffffffffffffffff82169050919050565b6000819050919050565b60005b83811015611dc8578082015181840152602081019050611dad565b83811115611dd7576000848401525b50505050565b60006002820490506001821680611df557607f821691505b60208210811415611e0957611e08611e87565b5b50919050565b6000611e1a82611da0565b91507fffffffffffffffffffffffffffffffffffffffffffffffffffffffffffffffff821415611e4d57611e4c611e58565b5b600182019050919050565b7f4e487b7100000000000000000000000000000000000000000000000000000000600052601160045260246000fd5b7f4e487b7100000000000000000000000000000000000000000000000000000000600052602260045260246000fd5b6000601f19601f8301169050919050565b611ed081611da0565b8114611edb57600080fd5b5056fea264697066735822122005e584862f4d287f3628638ce09881911a224841c79ad48ae8d893eb574a95bc64736f6c63430008000033",
  "immutableReferences": {
    "18": [
      {
        "length": 32,
        "start": 2416
      },
      {
        "length": 32,
        "start": 3946
      }
    ]
  },
  "source": "// SPDX-License-Identifier: MIT\r\npragma solidity ^0.8.0;\r\n\r\ncontract BatchingTransaction {\r\n    struct Milestone {\r\n        string description;\r\n        uint paymentAmount;\r\n        bool completed;\r\n        bool buyerApproved; // Track buyer's approval\r\n        bool sellerApproved; // Track seller's approval\r\n    }\r\n\r\n    address payable public buyer;    \r\n    address payable public seller;    \r\n    uint public immutable durationInSeconds;\r\n    uint public deadline;\r\n    uint public totalJobAmount;\r\n\r\n    Milestone[] public milestones;\r\n\r\n    event PaymentMade(address indexed buyer, uint amount);\r\n    event MilestoneCompleted(uint milestoneIndex, address indexed seller);\r\n    event RefundIssued(address indexed buyer, uint amount);\r\n    event ApprovalReceived(uint milestoneIndex, address indexed approver);\r\n\r\n    modifier onlyBuyer() {\r\n        require(msg.sender == buyer, \"Only the buyer can perform this action\");\r\n        _;\r\n    }\r\n\r\n    modifier onlySeller() {\r\n        require(msg.sender == seller, \"Only the seller can perform this action\");\r\n        _;\r\n    }\r\n\r\n    modifier milestoneExists(uint milestoneIndex) {\r\n        require(milestoneIndex < milestones.length, \"Invalid milestone index\");\r\n        _;\r\n    }\r\n\r\n    constructor(address payable _seller, uint _durationInSeconds, string[] memory _descriptions, uint[] memory _prices) {\r\n        buyer = payable(msg.sender);  \r\n        seller = _seller;             \r\n\r\n        durationInSeconds = _durationInSeconds;\r\n\r\n        // Initialize milestones and calculate total job amount\r\n        for (uint i = 0; i < _descriptions.length; i++) {\r\n            milestones.push(Milestone({\r\n                description: _descriptions[i],\r\n                paymentAmount: _prices[i],\r\n                completed: false,\r\n                buyerApproved: false,\r\n                sellerApproved: false\r\n            }));\r\n            totalJobAmount += _prices[i]; // Calculate the total job amount\r\n        }\r\n    }\r\n\r\n    // Buyer sends the full job amount upon contract deployment\r\n    function deposit() external payable onlyBuyer {\r\n        require(msg.value == totalJobAmount, \"Incorrect total job amount sent\");\r\n        \r\n        // Set the deadline based on the duration after deposit\r\n        deadline = block.timestamp + durationInSeconds;\r\n    }\r\n\r\n    // Approve milestone by buyer\r\n    function approveMilestoneByBuyer(uint milestoneIndex) external onlyBuyer milestoneExists(milestoneIndex) {\r\n        Milestone storage milestone = milestones[milestoneIndex];\r\n        require(!milestone.completed, \"Milestone already completed\");\r\n        require(!milestone.buyerApproved, \"Buyer already approved this milestone\");\r\n\r\n        milestone.buyerApproved = true;\r\n        emit ApprovalReceived(milestoneIndex, msg.sender);\r\n\r\n        // Check if both parties have approved to complete the milestone\r\n        if (milestone.buyerApproved && milestone.sellerApproved) {\r\n            completeMilestone(milestoneIndex);\r\n        }\r\n    }\r\n\r\n    // Approve milestone by seller\r\n    function approveMilestoneBySeller(uint milestoneIndex) external onlySeller milestoneExists(milestoneIndex) {\r\n        Milestone storage milestone = milestones[milestoneIndex];\r\n        require(!milestone.completed, \"Milestone already completed\");\r\n        require(!milestone.sellerApproved, \"Seller already approved this milestone\");\r\n\r\n        milestone.sellerApproved = true;\r\n        emit ApprovalReceived(milestoneIndex, msg.sender);\r\n\r\n        // Check if both parties have approved to complete the milestone\r\n        if (milestone.buyerApproved && milestone.sellerApproved) {\r\n            completeMilestone(milestoneIndex);\r\n        }\r\n    }\r\n\r\n    // Complete milestone once both approvals are met\r\n    function completeMilestone(uint milestoneIndex) internal {\r\n        Milestone storage milestone = milestones[milestoneIndex];\r\n        require(milestone.buyerApproved && milestone.sellerApproved, \"Both parties must approve\");\r\n\r\n        milestone.completed = true;\r\n\r\n        // Logic for transferring the payment for this milestone to the seller\r\n        (bool success, ) = seller.call{value: milestone.paymentAmount}(\"\");\r\n        require(success, \"Payment transfer failed\");\r\n\r\n        emit MilestoneCompleted(milestoneIndex, seller);\r\n    }\r\n\r\n    // The public/external wrapper for the internal function\r\n    function completeMilestoneWrapper(uint milestoneIndex) external onlySeller milestoneExists(milestoneIndex) {\r\n        require(milestones[milestoneIndex].buyerApproved && milestones[milestoneIndex].sellerApproved, \"Both parties must approve to complete\");\r\n        completeMilestone(milestoneIndex);  // Call the internal function from the external function\r\n    }\r\n\r\n    function refund() external onlyBuyer {\r\n    uint amountToRefund = 0;\r\n\r\n        // Calculate total for incomplete milestones\r\n        for (uint i = 0; i < milestones.length; i++) {\r\n            if (!milestones[i].completed) {\r\n                amountToRefund += milestones[i].paymentAmount;\r\n            }\r\n        }\r\n\r\n        require(amountToRefund > 0, \"No funds to refund\");\r\n        require(address(this).balance >= amountToRefund, \"Insufficient contract balance\");\r\n\r\n        (bool success, ) = buyer.call{value: amountToRefund}(\"\");\r\n        require(success, \"Refund transfer failed\");\r\n\r\n        emit RefundIssued(buyer, amountToRefund);\r\n    }\r\n\r\n\r\n    function getMilestoneCount() public view returns (uint) {\r\n        return milestones.length;\r\n    }\r\n\r\n    function getMilestone(uint index) public view returns (string memory, uint, bool) {\r\n        require(index < milestones.length, \"Index out of bounds\");\r\n        Milestone memory milestone = milestones[index];\r\n        return (milestone.description, milestone.paymentAmount, milestone.completed);\r\n    }\r\n\r\n    // Return the approval status of the buyer and seller for a milestone\r\n    function getMilestoneApprovals(uint milestoneIndex) public view milestoneExists(milestoneIndex) returns (bool buyerApproved, bool sellerApproved) {\r\n        Milestone memory milestone = milestones[milestoneIndex];\r\n        return (milestone.buyerApproved, milestone.sellerApproved);\r\n    }\r\n}\r\n",
  "sourcePath": "C:\\Users\\ghosh\\Desktop\\E-PAYMENT BLOCKCHAIN\\test\\contracts\\Payment.sol",
  "compiler": {
    "name": "solc",
    "version": "0.8.0+commit.c7dfd78e.Emscripten.clang"
  },
  "schemaVersion": "3.4.16",
  "updatedAt": "2024-11-11T05:29:13.920Z",
  "networkType": "ethereum",
  "devdoc": {
    "kind": "dev",
    "methods": {},
    "version": 1
  },
  "userdoc": {
    "kind": "user",
    "methods": {},
    "version": 1
  }
}