{
  "contractName": "BatchingTransaction",
  "abi": [
    {
      "inputs": [
        {
          "internalType": "address payable",
          "name": "_seller",
          "type": "address"
        },
        {
          "internalType": "uint256",
          "name": "_durationInSeconds",
          "type": "uint256"
        },
        {
          "internalType": "string[]",
          "name": "_descriptions",
          "type": "string[]"
        },
        {
          "internalType": "uint256[]",
          "name": "_prices",
          "type": "uint256[]"
        }
      ],
      "stateMutability": "nonpayable",
      "type": "constructor"
    },
    {
      "anonymous": false,
      "inputs": [
        {
          "indexed": false,
          "internalType": "uint256",
          "name": "milestoneIndex",
          "type": "uint256"
        },
        {
          "indexed": true,
          "internalType": "address",
          "name": "approver",
          "type": "address"
        }
      ],
      "name": "ApprovalReceived",
      "type": "event"
    },
    {
      "anonymous": false,
      "inputs": [
        {
          "indexed": false,
          "internalType": "uint256",
          "name": "milestoneIndex",
          "type": "uint256"
        },
        {
          "indexed": true,
          "internalType": "address",
          "name": "seller",
          "type": "address"
        }
      ],
      "name": "MilestoneCompleted",
      "type": "event"
    },
    {
      "anonymous": false,
      "inputs": [
        {
          "indexed": true,
          "internalType": "address",
          "name": "buyer",
          "type": "address"
        },
        {
          "indexed": false,
          "internalType": "uint256",
          "name": "amount",
          "type": "uint256"
        }
      ],
      "name": "PaymentMade",
      "type": "event"
    },
    {
      "anonymous": false,
      "inputs": [
        {
          "indexed": true,
          "internalType": "address",
          "name": "buyer",
          "type": "address"
        },
        {
          "indexed": false,
          "internalType": "uint256",
          "name": "amount",
          "type": "uint256"
        }
      ],
      "name": "RefundIssued",
      "type": "event"
    },
    {
      "inputs": [],
      "name": "buyer",
      "outputs": [
        {
          "internalType": "address payable",
          "name": "",
          "type": "address"
        }
      ],
      "stateMutability": "view",
      "type": "function",
      "constant": true
    },
    {
      "inputs": [],
      "name": "deadline",
      "outputs": [
        {
          "internalType": "uint256",
          "name": "",
          "type": "uint256"
        }
      ],
      "stateMutability": "view",
      "type": "function",
      "constant": true
    },
    {
      "inputs": [],
      "name": "durationInSeconds",
      "outputs": [
        {
          "internalType": "uint256",
          "name": "",
          "type": "uint256"
        }
      ],
      "stateMutability": "view",
      "type": "function",
      "constant": true
    },
    {
      "inputs": [
        {
          "internalType": "uint256",
          "name": "",
          "type": "uint256"
        }
      ],
      "name": "milestones",
      "outputs": [
        {
          "internalType": "string",
          "name": "description",
          "type": "string"
        },
        {
          "internalType": "uint256",
          "name": "paymentAmount",
          "type": "uint256"
        },
        {
          "internalType": "bool",
          "name": "completed",
          "type": "bool"
        },
        {
          "internalType": "bool",
          "name": "buyerApproved",
          "type": "bool"
        },
        {
          "internalType": "bool",
          "name": "sellerApproved",
          "type": "bool"
        }
      ],
      "stateMutability": "view",
      "type": "function",
      "constant": true
    },
    {
      "inputs": [],
      "name": "seller",
      "outputs": [
        {
          "internalType": "address payable",
          "name": "",
          "type": "address"
        }
      ],
      "stateMutability": "view",
      "type": "function",
      "constant": true
    },
    {
      "inputs": [],
      "name": "totalJobAmount",
      "outputs": [
        {
          "internalType": "uint256",
          "name": "",
          "type": "uint256"
        }
      ],
      "stateMutability": "view",
      "type": "function",
      "constant": true
    },
    {
      "inputs": [],
      "name": "deposit",
      "outputs": [],
      "stateMutability": "payable",
      "type": "function",
      "payable": true
    },
    {
      "inputs": [
        {
          "internalType": "uint256",
          "name": "milestoneIndex",
          "type": "uint256"
        }
      ],
      "name": "approveMilestoneByBuyer",
      "outputs": [],
      "stateMutability": "nonpayable",
      "type": "function"
    },
    {
      "inputs": [
        {
          "internalType": "uint256",
          "name": "milestoneIndex",
          "type": "uint256"
        }
      ],
      "name": "approveMilestoneBySeller",
      "outputs": [],
      "stateMutability": "nonpayable",
      "type": "function"
    },
    {
      "inputs": [
        {
          "internalType": "uint256",
          "name": "milestoneIndex",
          "type": "uint256"
        }
      ],
      "name": "completeMilestoneWrapper",
      "outputs": [],
      "stateMutability": "nonpayable",
      "type": "function"
    },
    {
      "inputs": [],
      "name": "refund",
      "outputs": [],
      "stateMutability": "nonpayable",
      "type": "function"
    },
    {
      "inputs": [],
      "name": "getMilestoneCount",
      "outputs": [
        {
          "internalType": "uint256",
          "name": "",
          "type": "uint256"
        }
      ],
      "stateMutability": "view",
      "type": "function",
      "constant": true
    },
    {
      "inputs": [
        {
          "internalType": "uint256",
          "name": "index",
          "type": "uint256"
        }
      ],
      "name": "getMilestone",
      "outputs": [
        {
          "internalType": "string",
          "name": "",
          "type": "string"
        },
        {
          "internalType": "uint256",
          "name": "",
          "type": "uint256"
        },
        {
          "internalType": "bool",
          "name": "",
          "type": "bool"
        }
      ],
      "stateMutability": "view",
      "type": "function",
      "constant": true
    },
    {
      "inputs": [
        {
          "internalType": "uint256",
          "name": "milestoneIndex",
          "type": "uint256"
        }
      ],
      "name": "getMilestoneApprovals",
      "outputs": [
        {
          "internalType": "bool",
          "name": "buyerApproved",
          "type": "bool"
        },
        {
          "internalType": "bool",
          "name": "sellerApproved",
          "type": "bool"
        }
      ],
      "stateMutability": "view",
      "type": "function",
      "constant": true
    }
  ],
  "bytecode": "0x60a06040523480156200001157600080fd5b506040516200294d3803806200294d833981810160405281019062000037919062000536565b336000806101000a81548173ffffffffffffffffffffffffffffffffffffffff021916908373ffffffffffffffffffffffffffffffffffffffff16021790555083600160006101000a81548173ffffffffffffffffffffffffffffffffffffffff021916908373ffffffffffffffffffffffffffffffffffffffff160217905550826080818152505060005b8251811015620002a75760046040518060a0016040528085848151811062000114577f4e487b7100000000000000000000000000000000000000000000000000000000600052603260045260246000fd5b602002602001015181526020018484815181106200015b577f4e487b7100000000000000000000000000000000000000000000000000000000600052603260045260246000fd5b602002602001015181526020016000151581526020016000151581526020016000151581525090806001815401808255809150506001900390600052602060002090600302016000909190919091506000820151816000019080519060200190620001c8929190620002b2565b506020820151816001015560408201518160020160006101000a81548160ff02191690831515021790555060608201518160020160016101000a81548160ff02191690831515021790555060808201518160020160026101000a81548160ff02191690831515021790555050508181815181106200026f577f4e487b7100000000000000000000000000000000000000000000000000000000600052603260045260246000fd5b6020026020010151600360008282546200028a919062000699565b9250508190555080806200029e90620007a0565b915050620000c3565b5050505050620008af565b828054620002c0906200076a565b90600052602060002090601f016020900481019282620002e4576000855562000330565b82601f10620002ff57805160ff191683800117855562000330565b8280016001018555821562000330579182015b828111156200032f57825182559160200191906001019062000312565b5b5090506200033f919062000343565b5090565b5b808211156200035e57600081600090555060010162000344565b5090565b600062000379620003738462000608565b620005d4565b9050808382526020820190508260005b85811015620003bd5781518501620003a28882620004f2565b84526020840193506020830192505060018101905062000389565b5050509392505050565b6000620003de620003d88462000637565b620005d4565b90508083825260208201905082856020860282011115620003fe57600080fd5b60005b858110156200043257816200041788826200051f565b84526020840193506020830192505060018101905062000401565b5050509392505050565b6000620004536200044d8462000666565b620005d4565b9050828152602081018484840111156200046c57600080fd5b6200047984828562000734565b509392505050565b60008151905062000492816200087b565b92915050565b600082601f830112620004aa57600080fd5b8151620004bc84826020860162000362565b91505092915050565b600082601f830112620004d757600080fd5b8151620004e9848260208601620003c7565b91505092915050565b600082601f8301126200050457600080fd5b8151620005168482602086016200043c565b91505092915050565b600081519050620005308162000895565b92915050565b600080600080608085870312156200054d57600080fd5b60006200055d8782880162000481565b945050602062000570878288016200051f565b935050604085015167ffffffffffffffff8111156200058e57600080fd5b6200059c8782880162000498565b925050606085015167ffffffffffffffff811115620005ba57600080fd5b620005c887828801620004c5565b91505092959194509250565b6000604051905081810181811067ffffffffffffffff82111715620005fe57620005fd6200084c565b5b8060405250919050565b600067ffffffffffffffff8211156200062657620006256200084c565b5b602082029050602081019050919050565b600067ffffffffffffffff8211156200065557620006546200084c565b5b602082029050602081019050919050565b600067ffffffffffffffff8211156200068457620006836200084c565b5b601f19601f8301169050602081019050919050565b6000620006a6826200072a565b9150620006b3836200072a565b9250827fffffffffffffffffffffffffffffffffffffffffffffffffffffffffffffffff03821115620006eb57620006ea620007ee565b5b828201905092915050565b600062000703826200070a565b9050919050565b600073ffffffffffffffffffffffffffffffffffffffff82169050919050565b6000819050919050565b60005b838110156200075457808201518184015260208101905062000737565b8381111562000764576000848401525b50505050565b600060028204905060018216806200078357607f821691505b602082108114156200079a57620007996200081d565b5b50919050565b6000620007ad826200072a565b91507fffffffffffffffffffffffffffffffffffffffffffffffffffffffffffffffff821415620007e357620007e2620007ee565b5b600182019050919050565b7f4e487b7100000000000000000000000000000000000000000000000000000000600052601160045260246000fd5b7f4e487b7100000000000000000000000000000000000000000000000000000000600052602260045260246000fd5b7f4e487b7100000000000000000000000000000000000000000000000000000000600052604160045260246000fd5b6200088681620006f6565b81146200089257600080fd5b50565b620008a0816200072a565b8114620008ac57600080fd5b50565b60805161207b620008d2600039600081816109c30152611000015261207b6000f3fe6080604052600436106100dd5760003560e01c8063590e1ae31161007f5780638f4cf247116100595780638f4cf2471461029f578063d0e30db0146102ca578063d8e06086146102d4578063e89e4ed6146102fd576100dd565b8063590e1ae31461021f5780637150d8ae146102365780638885bffe14610261576100dd565b806329dcb0cf116100bb57806329dcb0cf146101755780632f2591d1146101a05780633ee9c157146101c95780634e8602bd146101f4576100dd565b806308551a53146100e257806308f1515e1461010d5780632442e1cb14610136575b600080fd5b3480156100ee57600080fd5b506100f761033e565b6040516101049190611b55565b60405180910390f35b34801561011957600080fd5b50610134600480360381019061012f919061158d565b610364565b005b34801561014257600080fd5b5061015d6004803603810190610158919061158d565b61059c565b60405161016c93929190611b99565b60405180910390f35b34801561018157600080fd5b5061018a610749565b6040516101979190611e31565b60405180910390f35b3480156101ac57600080fd5b506101c760048036038101906101c2919061158d565b61074f565b005b3480156101d557600080fd5b506101de6109bb565b6040516101eb9190611e31565b60405180910390f35b34801561020057600080fd5b506102096109c1565b6040516102169190611e31565b60405180910390f35b34801561022b57600080fd5b506102346109e5565b005b34801561024257600080fd5b5061024b610d14565b6040516102589190611b55565b60405180910390f35b34801561026d57600080fd5b506102886004803603810190610283919061158d565b610d38565b604051610296929190611b70565b60405180910390f35b3480156102ab57600080fd5b506102b4610edc565b6040516102c19190611e31565b60405180910390f35b6102d2610ee9565b005b3480156102e057600080fd5b506102fb60048036038101906102f6919061158d565b611032565b005b34801561030957600080fd5b50610324600480360381019061031f919061158d565b611268565b604051610335959493929190611bd7565b60405180910390f35b600160009054906101000a900473ffffffffffffffffffffffffffffffffffffffff1681565b600160009054906101000a900473ffffffffffffffffffffffffffffffffffffffff1673ffffffffffffffffffffffffffffffffffffffff163373ffffffffffffffffffffffffffffffffffffffff16146103f4576040517f08c379a00000000000000000000000000000000000000000000000000000000081526004016103eb90611c91565b60405180910390fd5b80600480549050811061043c576040517f08c379a000000000000000000000000000000000000000000000000000000000815260040161043390611c51565b60405180910390fd5b600060048381548110610478577f4e487b7100000000000000000000000000000000000000000000000000000000600052603260045260246000fd5b906000526020600020906003020190508060020160009054906101000a900460ff16156104da576040517f08c379a00000000000000000000000000000000000000000000000000000000081526004016104d190611d71565b60405180910390fd5b8060020160029054906101000a900460ff161561052c576040517f08c379a000000000000000000000000000000000000000000000000000000000815260040161052390611d11565b60405180910390fd5b60018160020160026101000a81548160ff0219169083151502179055503373ffffffffffffffffffffffffffffffffffffffff167fbe556a88b31b59bf2916d67a1114497febeef512cc2e5fa4ad132f7865c56ac28460405161058f9190611e31565b60405180910390a2505050565b606060008060048054905084106105e8576040517f08c379a00000000000000000000000000000000000000000000000000000000081526004016105df90611db1565b60405180910390fd5b600060048581548110610624577f4e487b7100000000000000000000000000000000000000000000000000000000600052603260045260246000fd5b90600052602060002090600302016040518060a001604052908160008201805461064d90611f44565b80601f016020809104026020016040519081016040528092919081815260200182805461067990611f44565b80156106c65780601f1061069b576101008083540402835291602001916106c6565b820191906000526020600020905b8154815290600101906020018083116106a957829003601f168201915b50505050508152602001600182015481526020016002820160009054906101000a900460ff161515151581526020016002820160019054906101000a900460ff161515151581526020016002820160029054906101000a900460ff1615151515815250509050806000015181602001518260400151935093509350509193909250565b60025481565b600160009054906101000a900473ffffffffffffffffffffffffffffffffffffffff1673ffffffffffffffffffffffffffffffffffffffff163373ffffffffffffffffffffffffffffffffffffffff16146107df576040517f08c379a00000000000000000000000000000000000000000000000000000000081526004016107d690611c91565b60405180910390fd5b806004805490508110610827576040517f08c379a000000000000000000000000000000000000000000000000000000000815260040161081e90611c51565b60405180910390fd5b60048281548110610861577f4e487b7100000000000000000000000000000000000000000000000000000000600052603260045260246000fd5b9060005260206000209060030201600101544710156108b5576040517f08c379a00000000000000000000000000000000000000000000000000000000081526004016108ac90611c31565b60405180910390fd5b600482815481106108ef577f4e487b7100000000000000000000000000000000000000000000000000000000600052603260045260246000fd5b906000526020600020906003020160020160019054906101000a900460ff16801561096f57506004828154811061094f577f4e487b7100000000000000000000000000000000000000000000000000000000600052603260045260246000fd5b906000526020600020906003020160020160029054906101000a900460ff165b6109ae576040517f08c379a00000000000000000000000000000000000000000000000000000000081526004016109a590611cd1565b60405180910390fd5b6109b78261135d565b5050565b60035481565b7f000000000000000000000000000000000000000000000000000000000000000081565b60008054906101000a900473ffffffffffffffffffffffffffffffffffffffff1673ffffffffffffffffffffffffffffffffffffffff163373ffffffffffffffffffffffffffffffffffffffff1614610a73576040517f08c379a0000000000000000000000000000000000000000000000000000000008152600401610a6a90611cf1565b60405180910390fd5b6000805b600480549050811015610b4e5760048181548110610abe577f4e487b7100000000000000000000000000000000000000000000000000000000600052603260045260246000fd5b906000526020600020906003020160020160009054906101000a900460ff16610b3b5760048181548110610b1b577f4e487b7100000000000000000000000000000000000000000000000000000000600052603260045260246000fd5b90600052602060002090600302016001015482610b389190611e73565b91505b8080610b4690611f76565b915050610a77565b5060008111610b92576040517f08c379a0000000000000000000000000000000000000000000000000000000008152600401610b8990611d91565b60405180910390fd5b80471015610bd5576040517f08c379a0000000000000000000000000000000000000000000000000000000008152600401610bcc90611e11565b60405180910390fd5b60008060009054906101000a900473ffffffffffffffffffffffffffffffffffffffff1673ffffffffffffffffffffffffffffffffffffffff1682604051610c1c90611b40565b60006040518083038185875af1925050503d8060008114610c59576040519150601f19603f3d011682016040523d82523d6000602084013e610c5e565b606091505b5050905080610ca2576040517f08c379a0000000000000000000000000000000000000000000000000000000008152600401610c9990611dd1565b60405180910390fd5b60008054906101000a900473ffffffffffffffffffffffffffffffffffffffff1673ffffffffffffffffffffffffffffffffffffffff167fa171b6942063c6f2800ce40a780edce37baa2b618571b11eedd1e69e626e7d7683604051610d089190611e31565b60405180910390a25050565b60008054906101000a900473ffffffffffffffffffffffffffffffffffffffff1681565b600080826004805490508110610d83576040517f08c379a0000000000000000000000000000000000000000000000000000000008152600401610d7a90611c51565b60405180910390fd5b600060048581548110610dbf577f4e487b7100000000000000000000000000000000000000000000000000000000600052603260045260246000fd5b90600052602060002090600302016040518060a0016040529081600082018054610de890611f44565b80601f0160208091040260200160405190810160405280929190818152602001828054610e1490611f44565b8015610e615780601f10610e3657610100808354040283529160200191610e61565b820191906000526020600020905b815481529060010190602001808311610e4457829003601f168201915b50505050508152602001600182015481526020016002820160009054906101000a900460ff161515151581526020016002820160019054906101000a900460ff161515151581526020016002820160029054906101000a900460ff161515151581525050905080606001518160800151935093505050915091565b6000600480549050905090565b60008054906101000a900473ffffffffffffffffffffffffffffffffffffffff1673ffffffffffffffffffffffffffffffffffffffff163373ffffffffffffffffffffffffffffffffffffffff1614610f77576040517f08c379a0000000000000000000000000000000000000000000000000000000008152600401610f6e90611cf1565b60405180910390fd5b60003411610fba576040517f08c379a0000000000000000000000000000000000000000000000000000000008152600401610fb190611cb1565b60405180910390fd5b6003543414610ffe576040517f08c379a0000000000000000000000000000000000000000000000000000000008152600401610ff590611d31565b60405180910390fd5b7f00000000000000000000000000000000000000000000000000000000000000004261102a9190611e73565b600281905550565b60008054906101000a900473ffffffffffffffffffffffffffffffffffffffff1673ffffffffffffffffffffffffffffffffffffffff163373ffffffffffffffffffffffffffffffffffffffff16146110c0576040517f08c379a00000000000000000000000000000000000000000000000000000000081526004016110b790611cf1565b60405180910390fd5b806004805490508110611108576040517f08c379a00000000000000000000000000000000000000000000000000000000081526004016110ff90611c51565b60405180910390fd5b600060048381548110611144577f4e487b7100000000000000000000000000000000000000000000000000000000600052603260045260246000fd5b906000526020600020906003020190508060020160009054906101000a900460ff16156111a6576040517f08c379a000000000000000000000000000000000000000000000000000000000815260040161119d90611d71565b60405180910390fd5b8060020160019054906101000a900460ff16156111f8576040517f08c379a00000000000000000000000000000000000000000000000000000000081526004016111ef90611c71565b60405180910390fd5b60018160020160016101000a81548160ff0219169083151502179055503373ffffffffffffffffffffffffffffffffffffffff167fbe556a88b31b59bf2916d67a1114497febeef512cc2e5fa4ad132f7865c56ac28460405161125b9190611e31565b60405180910390a2505050565b6004818154811061127857600080fd5b906000526020600020906003020160009150905080600001805461129b90611f44565b80601f01602080910402602001604051908101604052809291908181526020018280546112c790611f44565b80156113145780601f106112e957610100808354040283529160200191611314565b820191906000526020600020905b8154815290600101906020018083116112f757829003601f168201915b5050505050908060010154908060020160009054906101000a900460ff16908060020160019054906101000a900460ff16908060020160029054906101000a900460ff16905085565b600060048281548110611399577f4e487b7100000000000000000000000000000000000000000000000000000000600052603260045260246000fd5b906000526020600020906003020190508060020160019054906101000a900460ff1680156113d557508060020160029054906101000a900460ff165b611414576040517f08c379a000000000000000000000000000000000000000000000000000000000815260040161140b90611df1565b60405180910390fd5b60018160020160006101000a81548160ff0219169083151502179055506000600160009054906101000a900473ffffffffffffffffffffffffffffffffffffffff1673ffffffffffffffffffffffffffffffffffffffff16826001015460405161147d90611b40565b60006040518083038185875af1925050503d80600081146114ba576040519150601f19603f3d011682016040523d82523d6000602084013e6114bf565b606091505b5050905080611503576040517f08c379a00000000000000000000000000000000000000000000000000000000081526004016114fa90611d51565b60405180910390fd5b600160009054906101000a900473ffffffffffffffffffffffffffffffffffffffff1673ffffffffffffffffffffffffffffffffffffffff167f032f77b843a5cc848407ffb1e918c51fd6982fbfd1adf0b60f45c6d7bb54068a8460405161156b9190611e31565b60405180910390a2505050565b6000813590506115878161202e565b92915050565b60006020828403121561159f57600080fd5b60006115ad84828501611578565b91505092915050565b6115bf81611ec9565b82525050565b6115ce81611edb565b82525050565b60006115df82611e4c565b6115e98185611e62565b93506115f9818560208601611f11565b6116028161201d565b840191505092915050565b600061161a603783611e62565b91507f496e73756666696369656e7420636f6e74726163742062616c616e636520666f60008301527f72206d696c6573746f6e6520636f6d706c6574696f6e2e0000000000000000006020830152604082019050919050565b6000611680601783611e62565b91507f496e76616c6964206d696c6573746f6e6520696e6465780000000000000000006000830152602082019050919050565b60006116c0602583611e62565b91507f427579657220616c726561647920617070726f7665642074686973206d696c6560008301527f73746f6e650000000000000000000000000000000000000000000000000000006020830152604082019050919050565b6000611726602783611e62565b91507f4f6e6c79207468652073656c6c65722063616e20706572666f726d207468697360008301527f20616374696f6e000000000000000000000000000000000000000000000000006020830152604082019050919050565b600061178c602a83611e62565b91507f4465706f73697420616d6f756e742073686f756c64206265206772656174657260008301527f207468616e207a65726f000000000000000000000000000000000000000000006020830152604082019050919050565b60006117f2602583611e62565b91507f426f74682070617274696573206d75737420617070726f766520746f20636f6d60008301527f706c6574650000000000000000000000000000000000000000000000000000006020830152604082019050919050565b6000611858602683611e62565b91507f4f6e6c79207468652062757965722063616e20706572666f726d20746869732060008301527f616374696f6e00000000000000000000000000000000000000000000000000006020830152604082019050919050565b60006118be602683611e62565b91507f53656c6c657220616c726561647920617070726f7665642074686973206d696c60008301527f6573746f6e6500000000000000000000000000000000000000000000000000006020830152604082019050919050565b6000611924601f83611e62565b91507f496e636f727265637420746f74616c206a6f6220616d6f756e742073656e74006000830152602082019050919050565b6000611964601783611e62565b91507f5061796d656e74207472616e73666572206661696c65640000000000000000006000830152602082019050919050565b60006119a4601b83611e62565b91507f4d696c6573746f6e6520616c726561647920636f6d706c6574656400000000006000830152602082019050919050565b60006119e4601283611e62565b91507f4e6f2066756e647320746f20726566756e6400000000000000000000000000006000830152602082019050919050565b6000611a24600083611e57565b9150600082019050919050565b6000611a3e601383611e62565b91507f496e646578206f7574206f6620626f756e6473000000000000000000000000006000830152602082019050919050565b6000611a7e601683611e62565b91507f526566756e64207472616e73666572206661696c6564000000000000000000006000830152602082019050919050565b6000611abe601983611e62565b91507f426f74682070617274696573206d75737420617070726f7665000000000000006000830152602082019050919050565b6000611afe601d83611e62565b91507f496e73756666696369656e7420636f6e74726163742062616c616e63650000006000830152602082019050919050565b611b3a81611f07565b82525050565b6000611b4b82611a17565b9150819050919050565b6000602082019050611b6a60008301846115b6565b92915050565b6000604082019050611b8560008301856115c5565b611b9260208301846115c5565b9392505050565b60006060820190508181036000830152611bb381866115d4565b9050611bc26020830185611b31565b611bcf60408301846115c5565b949350505050565b600060a0820190508181036000830152611bf181886115d4565b9050611c006020830187611b31565b611c0d60408301866115c5565b611c1a60608301856115c5565b611c2760808301846115c5565b9695505050505050565b60006020820190508181036000830152611c4a8161160d565b9050919050565b60006020820190508181036000830152611c6a81611673565b9050919050565b60006020820190508181036000830152611c8a816116b3565b9050919050565b60006020820190508181036000830152611caa81611719565b9050919050565b60006020820190508181036000830152611cca8161177f565b9050919050565b60006020820190508181036000830152611cea816117e5565b9050919050565b60006020820190508181036000830152611d0a8161184b565b9050919050565b60006020820190508181036000830152611d2a816118b1565b9050919050565b60006020820190508181036000830152611d4a81611917565b9050919050565b60006020820190508181036000830152611d6a81611957565b9050919050565b60006020820190508181036000830152611d8a81611997565b9050919050565b60006020820190508181036000830152611daa816119d7565b9050919050565b60006020820190508181036000830152611dca81611a31565b9050919050565b60006020820190508181036000830152611dea81611a71565b9050919050565b60006020820190508181036000830152611e0a81611ab1565b9050919050565b60006020820190508181036000830152611e2a81611af1565b9050919050565b6000602082019050611e466000830184611b31565b92915050565b600081519050919050565b600081905092915050565b600082825260208201905092915050565b6000611e7e82611f07565b9150611e8983611f07565b9250827fffffffffffffffffffffffffffffffffffffffffffffffffffffffffffffffff03821115611ebe57611ebd611fbf565b5b828201905092915050565b6000611ed482611ee7565b9050919050565b60008115159050919050565b600073ffffffffffffffffffffffffffffffffffffffff82169050919050565b6000819050919050565b60005b83811015611f2f578082015181840152602081019050611f14565b83811115611f3e576000848401525b50505050565b60006002820490506001821680611f5c57607f821691505b60208210811415611f7057611f6f611fee565b5b50919050565b6000611f8182611f07565b91507fffffffffffffffffffffffffffffffffffffffffffffffffffffffffffffffff821415611fb457611fb3611fbf565b5b600182019050919050565b7f4e487b7100000000000000000000000000000000000000000000000000000000600052601160045260246000fd5b7f4e487b7100000000000000000000000000000000000000000000000000000000600052602260045260246000fd5b6000601f19601f8301169050919050565b61203781611f07565b811461204257600080fd5b5056fea2646970667358221220f95ea31cd48e48d17f2d3ca600d3262d0385058c7fa8756e82fc60f06302084764736f6c63430008000033",
  "immutableReferences": {
    "18": [
      {
        "length": 32,
        "start": 2499
      },
      {
        "length": 32,
        "start": 4096
      }
    ]
  },
  "source": "// SPDX-License-Identifier: MIT\r\npragma solidity ^0.8.0;\r\n\r\ncontract BatchingTransaction {\r\n    struct Milestone {\r\n        string description;\r\n        uint paymentAmount;\r\n        bool completed;\r\n        bool buyerApproved; // Track buyer's approval\r\n        bool sellerApproved; // Track seller's approval\r\n    }\r\n\r\n    address payable public buyer;    \r\n    address payable public seller;    \r\n    uint public immutable durationInSeconds;\r\n    uint public deadline;\r\n    uint public totalJobAmount;\r\n\r\n    Milestone[] public milestones;\r\n\r\n    event PaymentMade(address indexed buyer, uint amount);\r\n    event MilestoneCompleted(uint milestoneIndex, address indexed seller);\r\n    event RefundIssued(address indexed buyer, uint amount);\r\n    event ApprovalReceived(uint milestoneIndex, address indexed approver);\r\n\r\n    modifier onlyBuyer() {\r\n        require(msg.sender == buyer, \"Only the buyer can perform this action\");\r\n        _;\r\n    }\r\n\r\n    modifier onlySeller() {\r\n        require(msg.sender == seller, \"Only the seller can perform this action\");\r\n        _;\r\n    }\r\n\r\n    modifier milestoneExists(uint milestoneIndex) {\r\n        require(milestoneIndex < milestones.length, \"Invalid milestone index\");\r\n        _;\r\n    }\r\n\r\n    constructor(address payable _seller, uint _durationInSeconds, string[] memory _descriptions, uint[] memory _prices) {\r\n        buyer = payable(msg.sender);  \r\n        seller = _seller;             \r\n\r\n        durationInSeconds = _durationInSeconds;\r\n\r\n        // Initialize milestones and calculate total job amount\r\n        for (uint i = 0; i < _descriptions.length; i++) {\r\n            milestones.push(Milestone({\r\n                description: _descriptions[i],\r\n                paymentAmount: _prices[i],\r\n                completed: false,\r\n                buyerApproved: false,\r\n                sellerApproved: false\r\n            }));\r\n            totalJobAmount += _prices[i]; // Calculate the total job amount\r\n        }\r\n    }\r\n\r\n    // Buyer sends the full job amount upon contract deployment\r\n    function deposit() external payable onlyBuyer {\r\n        require(msg.value > 0,\"Deposit amount should be greater than zero\");\r\n        require(msg.value == totalJobAmount, \"Incorrect total job amount sent\");\r\n        \r\n        // Set the deadline based on the duration after deposit\r\n        deadline = block.timestamp + durationInSeconds;\r\n    }\r\n\r\n    // Approve milestone by buyer\r\n    function approveMilestoneByBuyer(uint milestoneIndex) external onlyBuyer milestoneExists(milestoneIndex) {\r\n        Milestone storage milestone = milestones[milestoneIndex];\r\n        require(!milestone.completed, \"Milestone already completed\");\r\n        require(!milestone.buyerApproved, \"Buyer already approved this milestone\");\r\n\r\n        milestone.buyerApproved = true;\r\n        emit ApprovalReceived(milestoneIndex, msg.sender);\r\n\r\n        // Check if both parties have approved to complete the milestone\r\n        // if (milestone.buyerApproved && milestone.sellerApproved) {\r\n        //     completeMilestone(milestoneIndex);\r\n        // }\r\n    }\r\n\r\n    // Approve milestone by seller\r\n    function approveMilestoneBySeller(uint milestoneIndex) external onlySeller milestoneExists(milestoneIndex) {\r\n        Milestone storage milestone = milestones[milestoneIndex];\r\n        require(!milestone.completed, \"Milestone already completed\");\r\n        require(!milestone.sellerApproved, \"Seller already approved this milestone\");\r\n\r\n        milestone.sellerApproved = true;\r\n        emit ApprovalReceived(milestoneIndex, msg.sender);\r\n\r\n        // Check if both parties have approved to complete the milestone\r\n        // if (milestone.buyerApproved && milestone.sellerApproved) {\r\n        //     completeMilestone(milestoneIndex);\r\n        // }\r\n    }\r\n\r\n    // Complete milestone once both approvals are met\r\n    function completeMilestone(uint milestoneIndex) internal {\r\n        Milestone storage milestone = milestones[milestoneIndex];\r\n        require(milestone.buyerApproved && milestone.sellerApproved, \"Both parties must approve\");\r\n\r\n        milestone.completed = true;\r\n\r\n        // Logic for transferring the payment for this milestone to the seller\r\n        (bool success, ) = seller.call{value: milestone.paymentAmount}(\"\");\r\n        require(success, \"Payment transfer failed\");\r\n\r\n        emit MilestoneCompleted(milestoneIndex, seller);\r\n    }\r\n\r\n    // The public/external wrapper for the internal function\r\n    function completeMilestoneWrapper(uint milestoneIndex) external onlySeller milestoneExists(milestoneIndex) {\r\n        require(address(this).balance >= milestones[milestoneIndex].paymentAmount, \"Insufficient contract balance for milestone completion.\");\r\n        require(milestones[milestoneIndex].buyerApproved && milestones[milestoneIndex].sellerApproved, \"Both parties must approve to complete\");\r\n        completeMilestone(milestoneIndex);  // Call the internal function from the external function\r\n    }\r\n\r\n    function refund() external onlyBuyer {\r\n    uint amountToRefund = 0;\r\n\r\n        // Calculate total for incomplete milestones\r\n        for (uint i = 0; i < milestones.length; i++) {\r\n            if (!milestones[i].completed) {\r\n                amountToRefund += milestones[i].paymentAmount;\r\n            }\r\n        }\r\n\r\n        require(amountToRefund > 0, \"No funds to refund\");\r\n        require(address(this).balance >= amountToRefund, \"Insufficient contract balance\");\r\n\r\n        (bool success, ) = buyer.call{value: amountToRefund}(\"\");\r\n        require(success, \"Refund transfer failed\");\r\n\r\n        emit RefundIssued(buyer, amountToRefund);\r\n    }\r\n\r\n\r\n    function getMilestoneCount() public view returns (uint) {\r\n        return milestones.length;\r\n    }\r\n\r\n    function getMilestone(uint index) public view returns (string memory, uint, bool) {\r\n        require(index < milestones.length, \"Index out of bounds\");\r\n        Milestone memory milestone = milestones[index];\r\n        return (milestone.description, milestone.paymentAmount, milestone.completed);\r\n    }\r\n\r\n    // Return the approval status of the buyer and seller for a milestone\r\n    function getMilestoneApprovals(uint milestoneIndex) public view milestoneExists(milestoneIndex) returns (bool buyerApproved, bool sellerApproved) {\r\n        Milestone memory milestone = milestones[milestoneIndex];\r\n        return (milestone.buyerApproved, milestone.sellerApproved);\r\n    }\r\n}\r\n",
  "sourcePath": "C:\\Users\\ghosh\\Desktop\\E-PAYMENT BLOCKCHAIN\\test\\contracts\\Payment.sol",
  "compiler": {
    "name": "solc",
    "version": "0.8.0+commit.c7dfd78e.Emscripten.clang"
  },
  "schemaVersion": "3.4.16",
  "updatedAt": "2024-11-20T20:47:57.424Z",
  "networkType": "ethereum",
  "devdoc": {
    "kind": "dev",
    "methods": {},
    "version": 1
  },
  "userdoc": {
    "kind": "user",
    "methods": {},
    "version": 1
  }
}